:100000000C942A000C943F000C943F000C943F0089
:100010000C943F000C943F000C943F000C943F0064
:100020000C943F000C943F000C943F000C943F0054
:100030000C943F000C943F000C943F000C943F0044
:100040000C943F000C943F000C943F000C943F0034
:100050000C943F0011241FBECFE5D8E0DEBFCDBF1A
:1000600010E0A0E6B0E0E8E2F3E002C005900D92F7
:10007000A037B107D9F70E9481010C9492010C942A
:10008000000084B3807F84BB84B3806F84BB8FEF18
:1000900085BB0895EF92FF920F931F93CF93DF9349
:1000A000C0E6D0E060E070E0DE0141E050E095B3F2
:1000B000FA010C9002C0EE0FFF1F0A94E2F79A01BA
:1000C00012960C90129702C0220F331F0A94E2F787
:1000D0002E2B822F892B9A0114960C90149702C014
:1000E000220F331F0A94E2F7282BCA0116960C90B0
:1000F000169702C0880F991F0A94E2F7822B85BBDE
:1001000095B3888122969A0102C0220F331F8A95E7
:10011000E2F7822F8095892385BBE8E6F0E0EE24A4
:10012000E394F12C00E010E005C00F5F1F4F8FEF4C
:10013000E81AF80A83B32081329690E0022E02C0BA
:10014000959587950A94E2F780FD50C0CA0102C0D8
:10015000880F991F2A95E2F79C0183B390E08223D0
:100160009323892BD1F361307105C9F024F4611513
:10017000710541F03BC062307105F1F063307105EB
:1001800041F134C001151105F1F101301105E9F11A
:1001900002301105E1F10330110541F53AC00115B6
:1001A0001105C9F101301105C1F102301105B9F194
:1001B00003301105D9F435C001151105A1F1013045
:1001C000110599F10230110591F10330110571F417
:1001D00030C00115110579F10130110571F10230BE
:1001E000110569F10330110571F52BC094E0E91692
:1001F000F1040CF49ACF6F5F7F4F6430710509F002
:1002000056CF81E426C087E324C084E322C081E383
:1002100020C08FE31EC088E31CC085E31AC082E3C0
:1002200018C080E316C089E314C086E312C083E3DC
:1002300010C08DE30EC08FE20CC08AE20AC08DE2CE
:1002400008C08BE206C084E0E816F1040CF46DCF20
:1002500081E4DF91CF911F910F91FF90EF9008956E
:10026000C39883ED90E30197F1F700C00000C39AB3
:1002700008951ABAC29AC1980E9430018FEF8ABBC2
:10028000C2980895CF93C82F0E943901CBBB88B381
:10029000897F88BB0E943001CF91089581E00E9440
:1002A0004201089587E893E10197F1F700C000004B
:1002B00087B38E6087BB88B3817F88BB8FEF8ABB93
:1002C00085EA9EE00197F1F700C000000E944E0110
:1002D00088E30E94420186E00E94420180E80E9479
:1002E00042018FE00E9442010895CF93C82F0E94DF
:1002F0003901C19ACBBBC19AC2980E943001CF91FB
:1003000008950E9452010E9441000E944A008F33CA
:1003100019F08134D1F303C00E944E01F6CF0E9440
:080320007501F3CFF894FFCF43
:1003280004000500060007000000010002000300A9
:00000001FF
